:020000040800F2
:10000000900700202D0200088B130008051300083C
:100010008913000843040008A5130008000000002D
:100020000000000000000000000000008F13000826
:100030005D040008000000008D1300089113000803
:10004000470200084702000847020008470200086C
:10005000470200084702000847020008470200085C
:10006000470200084702000847020008470200084C
:10007000470200084702000847020008470200083C
:100080004702000847020008470200085104000820
:10009000450400084702000847020008470200081C
:1000A000470200084702000847020008470200080C
:1000B00047020008470200084702000847020008FC
:1000C00047020008470200084702000847020008EC
:1000D00047020008470200084702000847020008DC
:1000E00047020008470200084702000847020008CC
:1000F00047020008470200084702000847020008BC
:1001000047020008470200084702000847020008AB
:10011000470200084702000847020008470200089B
:10012000470200084702000847020008470200088B
:10013000470200084702000847020008470200087B
:10014000470200084702000847020008470200086B
:10015000470200084702000847020008470200085B
:10016000470200084702000847020008470200084B
:10017000470200084702000847020008000000008C
:10018000470200084702000800F002F800F03EF8BD
:100190000AA090E8000C82448344AAF10107DA45E2
:1001A00001D100F033F8AFF2090EBAE80F0013F0F6
:1001B000010F18BFFB1A43F0010318476C1D000024
:1001C0008C1D0000103A24BF78C878C1FAD85207B5
:1001D00024BF30C830C144BF04680C6070470000C1
:1001E0000023002400250026103A28BF78C1FBD840
:1001F000520728BF30C148BF0B6070471FB501F0E0
:1002000071FE00F0D5F81FBD10B510BD00F0E2F88A
:100210001146FFF7F3FF01F0CDFC00F000F903B445
:10022000FFF7F2FF03BC00F005F900000948804722
:1002300009480047FEE7FEE7FEE7FEE7FEE7FEE7C8
:10024000FEE7FEE7FEE7FEE704480549054A064BE0
:1002500070470000951300088901000890010020F4
:1002600090070020900300209003002053EA020C26
:1002700000F069802DE9F04B4FF00006002B1FBF06
:10028000B3FA83F503FA05F424FA05F65E4012BFCB
:100290001643B2FA82F502FA05F4C5F120051EBF35
:1002A00022FA05FC44EA0C04203556EA044C4FEAD5
:1002B000144418BF641C4FF000084FF0000990422E
:1002C00071EB030C39D3002919BFB1FA81F701FA98
:1002D00007F6B0FA80F700FA07F6C7F120071EBF4D
:1002E00020FA07FC46EA0C062037B6FBF4FCA7EB25
:1002F0000507103F07F01F0BCBF120060CFA0BFB94
:100300002CFA06F644BFB3460026202FA4BF5E4653
:100310004FF0000B5BEA060C08BF4FF0010B19EB26
:100320000B09ABFB027C48EB0608C01B06FB02CCAA
:100330000BFB03CC71EB0C01C1E70B4602464146B7
:100340004846BDE8F08B13B54FF000004FF00001B8
:10035000AFF30080BDE81C4070474FF0000200B5CD
:10036000134694469646203922BFA0E80C50A0E8D8
:100370000C50B1F12001BFF4F7AF090728BFA0E886
:100380000C5048BF0CC05DF804EB890028BF40F852
:10039000042B08BF704748BF20F8022B11F0804F94
:1003A00018BF00F8012B7047704770477047000076
:1003B00070B5064C7C44064D7D4403E02068204423
:1003C0008047241DAC42F9D170BD0000901B000095
:1003D000901B0000754600F029F8AE4605006946FE
:1003E000534620F00700854618B020B5FFF72CFFD4
:1003F000BDE820404FF000064FF000074FF0000826
:100400004FF0000B21F00701AC46ACE8C009ACE8A6
:10041000C009ACE8C009ACE8C0098D467047044685
:10042000AFF300802046FFF7FAFE00000048704757
:100430003001002001491820ABBEFEE72600020073
:100440007047FEE7014800F0F7B8000008010020FF
:10045000014800F0F1B8000008010020704772B6B2
:10046000FEE790F82020012A07D0022A05D0416A31
:1004700041F48021416201207047006842690A43CB
:10048000426100207047F0B590F820500468A468DD
:10049000012D05D0022D03D0416A41F4802153E0A3
:1004A00014F0406F01D1E5004BD5C4F30164022C78
:1004B00003D9416A41F4000146E00125A5401D60D1
:1004C0008D684FF4C0739DB1CE6835434E6845EAE0
:1004D000C605066803EB0417F5514FF4C2750768AB
:1004E00005EB04150E697E51097D012905D009E04F
:1004F0000E88CD6845EA4655EBE701684E5946F44B
:1005000080764E511179D2F805504FF4C67641EA03
:100510000525016806EB04168D511178D2F80120EB
:100520004FF4C47541EA0221026805EB04155151EC
:10053000006803EB0411425842F0010242500020CF
:10054000F0BD416A41F4001141620120F0BD7047E5
:1005500030B590F82040012C05D0022C03D0416A20
:1005600041F480215DE00468002955D02469A40786
:1005700054D04FF4D874056804EB01142D5915F0CC
:100580000405956005682D594ED0ED085560056845
:100590002C5904F00204D4604FF4DA74056804EBBB
:1005A00001142D5905F00F05156105682D59C5F386
:1005B0000725956105682C59240C54614FF4DC72B1
:1005C000046802EB0112A4581C700468A458240AA1
:1005D0005C700468A458240C9C700468A258120E25
:1005E000DA704FF4DE72046802EB0112A4581C7139
:1005F0000468A458240A5C710468A458240C9C71F3
:100600000468A258120EDA71006881B1016941F0E4
:1006100020010161002030BDE468A8E7416A41F48F
:1006200000114162012030BD6D0D1560AFE7C1685A
:1006300041F02001C160EDE72DE9F05F054600685B
:1006400000244669D0F804908768D0F80CB0D0F840
:1006500010A0D0F81880F10748D0F90714D0012174
:100660008160B80703D5284600F005FA0CE078074A
:1006700002D54FF4006407E0380702D54FF48054E8
:1006800002E0284600F0F6F9F80516D529684FF47F
:1006900080708860B80503D5284600F0EEF90CE0BC
:1006A000780502D544F4005407E0380502D544F437
:1006B000804402E0284600F0DFF9F80316D52968E7
:1006C0004FF480308860B80303D5284600F0D7F98E
:1006D0000CE0780302D544F4004407E0380302D567
:1006E00044F4803402E0284600F0C8F9300707D50A
:1006F0005FEACB6004D52968102044F40074C86018
:1007000070074FF0080707D55FEA0B7004D528681B
:10071000C760284600F060F9B00706D52868C068B1
:10072000800702D0284600F059F9700607D55FEA25
:10073000CA6004D52968102044F480640861B006BA
:1007400007D55FEA0A7004D528680761284600F0DB
:1007500061F9F00606D528680069800702D02846AE
:1007600000F059F9B00308D55FEAC96005D52968DA
:1007700010204860284600F04FF9F00307D55FEAE3
:10078000097004D528684760284600F079F93004DC
:1007900046D55FEA497040D5F00504D55FEAC870D8
:1007A00001D044F00104B00504D55FEA887001D59A
:1007B00044F00204700504D55FEA487001D544F0A6
:1007C0000404300529D518F0700F26D008F0700009
:1007D000402815D006DC102809D020280AD030285F
:1007E00016D10AE050280ED0602811D10EE044F056
:1007F00008040DE044F010040AE044F0200407E08F
:1008000044F0400404E044F0800401E044F48074C7
:100810002868816921F0700181612968042048609D
:10082000002C05D0686A204368622846FFF78FFED7
:10083000BDE8F09F70B5040003D094F8200010B11B
:1008400004E0012070BD204600F082F820680168B5
:1008500041F00101016000F01FFA0546052604E0A1
:1008600000F01AFA401B0A2811D820684068C00717
:10087000F6D02068016821F00201016000F00CFA56
:1008800005460BE000F008FA401B0A2806D9606A0A
:1008900040F40030606284F82060D2E7206840684D
:1008A0008007EFD4207E0128206801683DD021F028
:1008B00080010160607E01282068016838D021F045
:1008C00040010160A07E01282068016833D021F03A
:1008D00020010160E07E0128206801682ED041F0EF
:1008E00010010160207F01282068016829D021F0D3
:1008F00008010160607F01282068016824D021F090
:1009000004010160D4E902010843D4E9041211434F
:1009100008436168491E08432168C861002060627D
:10092000012084F82000002070BD41F08001C0E764
:1009300041F04001C5E741F02001CAE721F0100174
:10094000CFE741F00801D4E741F00401D9E7000006
:1009500010B586B0044614216846FFF7FEFC1B491B
:10096000206888422FD11A480021026842F00072A4
:100970000260006800F000700590154810380268A9
:1009800042F0080202600068022200F008000590B0
:100990000320CDE90210CDE9000209200490694648
:1009A0000C4800F081F800221146132000F0E2F913
:1009B000132000F0D1F900221146142000F0DAF9DA
:1009C000142000F0C9F906B010BD0000006400401A
:1009D00040380240000C02407047000010B50A4B3E
:1009E0000A4A00210A48FFF7B3FD00280AD1074848
:1009F0008168042906D14268BDE810400249CC381C
:100A000000F004BE10BD000000000020EC0000203B
:100A100008010020704770477047000070B5044619
:100A200090F82000012804D0606A40F40020606241
:100A300018E0022084F820002068016821F00101FC
:100A4000016000F029F905460EE000BF00F024F92E
:100A5000401B0A2808D9606A40F400306062052013
:100A600084F82000012070BD20684068C007EDD1E7
:100A7000606270BD7047704770477047704770473D
:100A80007047000070B5044600F006F90546601C8A
:100A900002D004480078044400F0FEF8401BA04255
:100AA000FAD370BD080000202DE9F84FDFF8BCA193
:100AB000002201250AF1040B03264FF00F090BF168
:100AC000040E00BF0B6805FA02F42340A34270D164
:100AD0000F7907F00307012F01D0022F16D1876885
:100AE0004FEA420806FA08FC27EA0C07D1F80CC0C6
:100AF0000CFA08FC4CEA070CC0F808C04768A7438A
:100B00000C79C4F3001494403C4344600C79E443F2
:100B1000A4070AD0C4684FEA420C06FA0CF7BC439B
:100B20008F6807FA0CF72743C7600C7904F00304B9
:100B3000022C12D1D40800EB840CDCF820405707BB
:100B4000FF0E09FA07F824EA0804D1F8108008FA21
:100B500007F848EA0408CCF8208004684FEA420C01
:100B600006FA0CF7BC430F7907F0030707FA0CF7F6
:100B7000274307604C6814F4403F70D03C4C276812
:100B800047F480472760246822F0030704F4804478
:100B90000094384C07EB040CDCF8084897074FEA40
:100BA000177809FA08F7BC43334FB84202D100273F
:100BB00024E054E0314FB84201D101271EE0304F0C
:100BC000B84201D1022719E02E4FB84201D10327C4
:100BD00014E02D4FB84201D104270FE02B4FB8424B
:100BE00001D105270AE02A4FB84201D1062705E0C6
:100BF000284FB84201D1072700E0082707FA08F775
:100C00002743CCF80878DAF800405746D1F804C0FA
:100C10009C435FEACC3C00D51C433C60DBF80040C1
:100C20005F46D1F804C09C435FEA8C3C00D51C436E
:100C30003C60DEF800407746D1F804C09C435FEA90
:100C4000CC2C00D51C433C60084F0C373C68D1F8D5
:100C500004C09C435FEA8C2C00D51C433C60521CB2
:100C6000102AFFF42FAFBDE8F88F0000003C0140D0
:100C700044380240003001400000024000040240BD
:100C800000080240000C0240001002400014024024
:100C900000180240001C02400148806870470000B4
:100CA0000800002002488168027811448160704782
:100CB000080000200B4810B5016841F40071016084
:100CC000016841F480610160016841F48071016054
:100CD000032000F06FF80F2000F006F800F024F871
:100CE000002010BD003C024070B50D4D04464FF48D
:100CF0007A712878B1FBF0F00A490968B1FBF0F08D
:100D000000F0ECFA48B9102C07D200222146501E00
:100D100000F030F800206C6070BD012070BD000054
:100D200008000020140000200A4808B5016841F4BA
:100D300080410160006800F4804000900548001F79
:100D4000016841F080510160006800F0805000901F
:100D500008BD000044380240002809DB00F01F02F3
:100D6000012191404009800000F1E020C0F800110D
:100D700070470000F0B40E4B1B680C46C3F302230F
:100D8000C3F10705042D00D90425191D072901D237
:100D9000002300E0DB1E012606FA05F1491E214072
:100DA00099409E40761E16403143F0BC00F0ECBEE8
:100DB0000CED00E0064900F0070208684FF6FF035B
:100DC000184040EA0220034A1043086070470000C0
:100DD0000CED00E00000FA052DE9F0470E46050095
:100DE00065D0DFF81481D8F80000F7B200F00700F2
:100DF000B04207D288F80070D8F8000000F0070071
:100E0000B04254D128683D4C810712D5400703D524
:100E1000206840F4E05020602878000703D520685F
:100E200040F4604020602068A96820F0F00008438A
:100E300020602878C0072DD030496868083901281B
:100E400012D0022813D0032811D00968890700297D
:100E50002DDA216821F0030101432160FFF71CFF17
:100E6000814641F2883A0EE009688903EFE7096894
:100E70008901ECE7FFF710FFA0EB0901514502D90A
:100E80000320BDE8F0872068696800F00C00B0EB33
:100E9000810FEFD1D8F80010404601F00701B142B0
:100EA00007D90770006800F00700B04201D00120A8
:100EB000E7E72878400705D52068E96820F4E05086
:100EC000084320602878000706D52068296920F4A7
:100ED000604040EAC100206000F018F82168084A2C
:100EE000C1F30311515CC840064908600648006818
:100EF000FFF7FAFE0020C4E7003C02400838024039
:100F0000F81E0008140000200C000020154810B541
:100F1000006810F00C02144813D01449042A0FD0B2
:100F2000082A0ED10F4C241F2268236802F03F02CA
:100F30005B0207D52068C0F38810A0FB010106E022
:100F4000084610BD2168C1F38811A1FB00010023F0
:100F5000FFF78CF92168C1F30141491C4900B0FB3E
:100F6000F1F010BD083802400024F400001BB70067
:100F70002DE9F84F04006ED02078DFF84C93C007BD
:100F8000A9F104054AD009F104000168C1F3810107
:100F9000012908D00068C0F3810002280AD1D9F8DD
:100FA0000000400206D52868800337D56068002815
:100FB000E1D033E06068B0F5803F10D0B0F5A02FED
:100FC000286810D020F480302860286820F4802021
:100FD00028606068A8B1FFF75FFE06460DE028684C
:100FE00040F48030F4E740F480202860F7E700BF49
:100FF000FFF752FE801B642873D828688003F7D55A
:101000000CE0FFF749FE064605E000BFFFF744FE8F
:10101000801B6428F0D828688003F7D42078DFF894
:10102000AC8280074FF0000A3ED5A748001D01683A
:1010300011F00C0F08D00068C0F3810002280BD11A
:10104000D9F80000400207D42868800716D5E06868
:10105000012800D112E033E1E068B8B10120C8F8FE
:101060000000FFF719FE064605E000BFFFF714FE7B
:10107000801B0228C0D828688007F7D52868216916
:1010800020F0F80040EAC10028600DE0C8F800A098
:10109000FFF702FE064604E0FFF7FEFD801B022874
:1010A0001FD828688007F7D42078000722D5864FFC
:1010B00087486169703771B101210160FFF7ECFD6C
:1010C000064604E0FFF7E8FD801B022809D83868CF
:1010D0008007F7D50EE0C0F800A0FFF7DDFD06465B
:1010E00005E082E0FFF7D8FD801B02287DD8386834
:1010F0008007F7D42078400768D5DFF8CCB1002707
:101100000BF13C0BDBF80000C0000BD4DBF8001047
:1011100041F08051CBF80010DBF80000012700F00F
:10112000805000906B4E3068C00510D4306840F499
:1011300080703060FFF7B0FD009005E0FFF7ACFD78
:101140000099401A022850D83068C005F6D55E4E86
:10115000A0686C3601280FD00528306810D020F028
:1011600001003060306820F004003060A068B8B141
:10117000FFF792FD00900FE0306840F00100F4E7C7
:1011800040F004003060F7E7FFF786FD0099411A50
:1011900041F28830814266D830688007F4D50EE08D
:1011A000FFF77AFD009007E0FFF776FD0099411AFE
:1011B00041F28830814256D830688007F4D42FB18C
:1011C000DBF8001021F08051CBF80010A069C8B303
:1011D0003D49091D0968C1F3810102294AD002284D
:1011E000504607D0C8F8600000E03CE0FFF754FD2F
:1011F00004463BE04746C8F86000FFF74DFD064651
:1012000005E000BFFFF748FD801B02282BD82868A7
:101210008001F7D4D4E907010843A16A2E4A49089E
:1012200002EB0141626A41EA8211084394F82C10F2
:1012300040EA0161C9F8001001203866FFF72CFD73
:10124000044606E03EE000BFFFF726FD001B022833
:1012500009D828688001F7D534E000BFFFF71CFDEE
:10126000001B022802D90320BDE8F88F28688001FE
:10127000F4D427E00128F7D0D9F80000E26900F49F
:10128000800191421CD1226A00F03F01914217D1A6
:1012900047F6C071626A0140B1EB821F10D1A26AA9
:1012A0004FF0FF3300F4403103EB5202B1EB024F39
:1012B00006D194F82C1000F07060B0EB016F01D0F3
:1012C0000120D1E70020CFE7043802400000474268
:1012D000800E4742007000400000FFFF10B5401E26
:1012E000B0F1807F01D3012010BD4FF0E024606198
:1012F0000F21601700F048FC0020A061072020614A
:10130000002010BDFEE700000F4810B50D49016038
:101310000321416000214FF4A0228160C0E9031243
:101320004FF4C0024261017641768176C176017741
:101330004177FFF77FFA002803D0BDE81040FFF7A0
:101340008EB810BD00640040080100200D4808B5AB
:10135000016841F001010160016801F001010091A3
:10136000016841F008010160016801F00801009185
:10137000016841F080010160006800F08000009089
:1013800008BD000030380240FEE7FEE770477047B6
:10139000FFF788BC0248016841F4700101607047A2
:1013A00088ED00E0FEE70179D0F8050041EA002071
:1013B00000EE100A704771EE601AB4EEC10AF1EE49
:1013C00010FA02DDB0EE410A08E0B0EE601AB4EEA9
:1013D000C10AF1EE10FA01D2B0EE600A012181409B
:1013E00070EE600A491E00EE101AB8EEC00A20EE38
:1013F000800AC0EE210ABDEEE00A10EE100A704726
:1014000001EE100A70EEC00A0122B8EE411A8A40BD
:10141000521E20EE811A00EE902AF8EE601AC1EEFC
:10142000210A30EE800A704730B593B0302168460B
:10143000FEF793FF14210CA8FEF78FFF1D4800252F
:10144000016841F080510160006800F08050119007
:101450001948016841F4804101600068022400F4E9
:101460008040119001200090000401908001CDE99E
:10147000064006200890A820CDE9090404200B901E
:101480006846FFF775FD08B172B6FEE70CA90F209C
:1014900081E831004FF4A0500F904FF4805010902D
:1014A00005210CA8FFF798FC002801D072B6FEE7D2
:1014B00013B030BD403802400070004030B50D46DA
:1014C00089B00446002100F065F80021042007914E
:1014D000CDE90201082006910490618820784FF040
:1014E000E06242EA012140EA054008430190044BD2
:1014F00006AA69460348FEF7C6FF09B030BD0000E2
:101500001C0000200801002010B588B0044600210E
:1015100000F040F8002104200791CDE902010820E5
:101520000691049061884FF0C062207842EA012160
:101530000843019001208DF81800054B06AA694662
:101540000448FEF7A0FF204600F006F808B010BDE2
:101550001C0000200801002000B589B000220421F1
:101560000792CDE902120821069204910178408881
:101570004FF0407242EA002001430191034B06AA5A
:1015800069460348FEF77FFF09B000BD1C0000203C
:101590000801002000B589B0002206928DF81810CD
:1015A00007920421CDE902120821049101784088B4
:1015B0004FF0806242EA002001430191034B06AAEA
:1015C00069460348FEF75FFF09B000BD1C0000201C
:1015D0000801002000B589B0002204210792CDE95E
:1015E000021208210692049101784088054B41EAD5
:1015F0000020019006AA69460348FEF744FF09B09F
:1016000000BD00001C0000200801002070B5044649
:101610000B460078C2F307211546884209D1C5F36D
:101620000560022806D011283AD0D0B2FE2800D199
:10163000217070BD1888102140BAF2EE090ABAEE86
:10164000090AFFF7DDFE84ED0F0A5888102140BA21
:10165000DFED500A9FED500AFFF7D2FE84ED100A2D
:101660009888102140BAF3EE010ABBEE010AFFF799
:10167000C7FE84ED120AD88840BA00F022FB9FED25
:10168000471B53EC112B00F02FFB00F0E9FAE0644C
:10169000C5F3054084F83000C5F38150206570BD66
:1016A000404A0020198832F81050A9426DD10E2806
:1016B0006BD2DFE800F00710171E252C333A4148A3
:1016C0004F565D64187900EE100A0120B8EE400A0A
:1016D00084ED160AE6E71846FFF765FE84ED180A62
:1016E0000220DFE71846FFF75EFE84ED1A0A0320AA
:1016F000D8E71846FFF757FE84ED1C0A0420D1E70F
:101700001846FFF750FE84ED1E0A0520CAE718466A
:10171000FFF749FE84ED200A0620C3E71846FFF7CD
:1017200042FE84ED220A0720BCE71846FFF73BFE85
:1017300084ED240A0820B5E71846FFF734FE84ED4F
:10174000260A0920AEE71846FFF72DFE84ED280A89
:101750000A20A7E71846FFF726FE84ED2A0A0B2089
:10176000A0E71846FFF71FFE84ED2C0A0C2099E72E
:101770001846FFF718FE84ED2E0A0D2092E7184652
:10178000FFF711FE84ED300A70BD401C0D2889DD85
:1017900070BD000000003042000030C29A99999953
:1017A0009999B93F081F000870B580ED040A0446F6
:1017B00080ED071A806DB0F17E5F11D0206D022898
:1017C0000ED147F205056A22B7EE000A29462046E7
:1017D00000F02EF92946204600F0D6F80120A0603E
:1017E00094ED040A702247F21701204600F020F918
:1017F00094ED050A702247F22501204600F018F901
:1018000094ED070A2046BDE87040702247F21601A9
:1018100000F00EB970B500252DED028B88B004469E
:101820000095019580ED060AC0ED070A80ED041AC7
:10183000C0ED091A80ED0B2A90ED160A9FED4C8A37
:10184000B5EEC00AF1EE10FA10D0206D02280DD1CD
:1018500047F205066A22B0EE480A3146204600F0FB
:10186000E7F83146204600F08FF8A5600420CDE966
:1018700004050820069094ED060A1020B3EE011A24
:10188000FBEE010AFFF797FD4FF0807141EA00205F
:101890002178B2EE091A0843039094ED070A10204C
:1018A000FAEE090AFFF787FD000A8DF8000094EDB3
:1018B000070A1020B2EE091AFAEE090AFFF77BFDBB
:1018C000DFED2C2A9FED2C2A8DF8010094ED040AFF
:1018D0001020B0EE621AF0EE420AFFF76CFD000A2B
:1018E0008DF8020094ED040A1020B0EE621AF0EEBA
:1018F000420AFFF760FD9FED212A8DF8030094ED69
:10190000090A1020B0EE421AF0EE480AFFF753FD24
:10191000000A8DF8040094ED090A1020B0EE421A76
:10192000F0EE480AFFF747FD8DF8050094ED0B0A2D
:101930001020B1EE041AF0EE480AFFF73CFD000A51
:101940008DF8060094ED0B0A1020B1EE041AF0EEAB
:10195000480AFFF730FD8DF80700094B6A4602A9D7
:101960000848FEF790FD08B0BDEC028B70BD00008A
:101970000000000000003042000030C20000FA43C6
:101980001C0000200801002000B589B0002206924A
:101990008DF81810090A8DF8191007920421CDE965
:1019A000021208210491017840884FF0885242EADF
:1019B000002001430191044B06AA69460348FEF743
:1019C00062FD09B000BD00001C00002008010020DD
:1019D00010B580ED040A044680ED081A0220A060CC
:1019E0006A22B0EE000A47F20501204600F020F816
:1019F0000E4970220878401C087094ED080A47F2DE
:101A00001801204600F014F894ED050A702247F200
:101A10002201204600F00CF894ED040A2046BDE8AF
:101A20001040702247F20A0100F002B818000020AE
:101A300070B588B0002300930424CDE904430193DA
:101A400008240694458804788DF800104FF09056CD
:101A5000090A46EA05252C438DF801108DF802305D
:101A600003948DF80330702A02D06A2A03D012E062
:101A70008DED010A0FE0FDEEC00ABCEEC00AC0ED1C
:101A8000020A10EE100A8DF804008DF805308DF86A
:101A900006308DF80730044B6A4602A90348FEF76A
:101AA000F2FC08B070BD00001C00002008010020FE
:101AB00070B580ED030A044680ED0D0A006D47F213
:101AC000050602280BD1A068032808D06A22B0EED0
:101AD000080A31462046FFF7ABFF0320A0600E4DF9
:101AE00032216878B0FBF1F201FB120030B96A22B2
:101AF000B0EE080A31462046FFF79AFF687847F2B1
:101B00000601401C687094ED030A2046BDE8704051
:101B10007022FFF78DBF00001800002000B50B46B3
:101B20000549543000F00AF800F8543D1F21418067
:101B30000021816000BD0000081F00080A880280A3
:101B40004A8802818A880282CA8802830A890284BA
:101B50004A8902858A890286CA8902870A8AA0F888
:101B600040204A8AA0F848208A8AA0F85020CA8AD1
:101B7000A0F858200A8BA0F860204A8BA0F86820B3
:101B8000898BA0F8701070470907090E002804DB44
:101B900000F1E02080F80014704700F00F0000F121
:101BA000E02080F8141D704701210148FFF7B6BFFF
:101BB000200000202DED048BFFF77CF8FFF734FCAC
:101BC000FFF7C4FBFFF7A0FB02212248FEF749FC08
:101BD0002048FEF723FF2048FFF7FCFC01211E48A8
:101BE000FFF76CFC1C48FFF78FFC1B48FFF7B4FCA9
:101BF0009FED1A8AB6EE009AF7EE008AB0EE482AF8
:101C0000F0EE481AB0EE481AF0EE490AB0EE480A73
:101C10001148FFF7FFFDB0EE491AF0EE680AB0EE8A
:101C2000480A0D48FFF7C0FDF0EE680AB0EE481A0A
:101C3000B0EE480A0848FFF7CBFEB0EE480A064867
:101C4000FFF736FF00210448FFF7A4FC0220FEF74F
:101C500019FFD3E70801002020000020CDCCCC3DA7
:101C600021F00042A2F16052B2F5801F01F0004362
:101C700028BFD2F17F6C0BD95FEA001C43EAC20295
:101C800042EB507018BF704728BF20F0010070472A
:101C9000B2F5801FBCBF184670474FEA410C1CF5D7
:101CA000001F02D2084600F022B970B500F0C6F855
:101CB00000000089FFF7F6BF4FF00040A0F580005C
:101CC0007047B0FA80F310FA03F10AD0C3F11D0394
:101CD00003F580634FEA41504FEA035202EBD121F2
:101CE00070474FF000007047DFF848C170B51CEA3C
:101CF000111E1EBF1CEA13159EEA0C0F95EA0C0F6D
:101D000000F06F8081EA030423EA4C134EEAD47E8C
:101D100021EA4C1141F4801143F48013AE44A1FB3D
:101D2000024CA0FB0365AEF17F7E361955EB0C0526
:101D3000A1FB034C4CF10003A0FB021C16EB0C06AC
:101D4000654153F10003094218BF46F0010613F440
:101D5000007F0BD14FEA03314FEA0530340341EAEB
:101D6000155140EA16506FF003020AE04FEAC32112
:101D70004FEAC520F40241EA555140EA56506FF04F
:101D8000020202EB2E4201EB025585EACE710AD027
:101D90005FEA440C18BF24F0004450F1000041F108
:101DA000000120EAD47040F2FE7C624500D270BD92
:101DB000A84214BF4FF080444FF04044002E08BFAB
:101DC0000024BEF1806FA8BFA1F1C041BDE8704002
:101DD00080F282804FF0000001F1C04101F000412B
:101DE00070479EEA0C0F0CEA131518BF95EA0C0F0A
:101DF00006D04FF0000081EA030E0EF0004170BDE6
:101E000000F01CF88900013E00F007B800F009B8A6
:101E10004FEA430C5FEA5C5C08D081EA030100F002
:101E20005BB84FEA410C5FEA5C5CF6D14FF0000012
:101E3000014970470000FF070000F87F0EF1020E15
:101E40002EF0030E5EF8046B364205D4012A43EBF4
:101E5000030515F5001F12D8012841EB010C1CF5F4
:101E6000001F0CD80ED14FEAD17C15F5001F0CEBEA
:101E70004C0C0CF1020C08BF4CEBD37C04E04FF08F
:101E8000080C01E04FEAD37C0CEB4C0526FA05F672
:101E900006F00706B6F1040C06D20EEB860CBDE880
:101EA00070404CF0010C6047DFE80CF0090B0202B7
:101EB0004FF000414FF00000A1F5002170BD194620
:101EC0001046012851EB010418BFD4F5001484BF5B
:101ED000002001F0004170BD0808A0F500114FEA94
:101EE000310170474FF04070E1EE100A7047FF215A
:101EF00041EAD050C005704700000000000000001B
:101F00000102030406070809057006700A700B70C9
:101F100010701170147016701770187019701A7094
:101F20001B701C701D7000004C1F0008000000207A
:101F300020000000C40100086C1F000820000020E1
:101F400070070000E001000861FCFFFF00000000D6
:101F50000000000001000000100000000000000070
:0C1F60000024F40000000000000000005D
:040000050800018965
:00000001FF
