:020000040800F2
:10000000D0070020D10100087B120008151200085B
:1000100079120008FD020008951200080000000097
:100020000000000000000000000000007F12000837
:10003000FF020008000000007D1200088112000885
:10004000EB010008EB010008EB010008EB010008E0
:10005000EB010008EB010008EB010008EB010008D0
:10006000EB010008EB010008EB010008EB010008C0
:10007000EB010008EB010008EB010008EB010008B0
:10008000EB010008EB010008EB010008EB010008A0
:1000900089120008EB010008EB010008EB010008E1
:1000A000EB010008EB010008EB010008EB01000880
:1000B000EB010008EB010008EB010008EB01000870
:1000C000EB010008EB010008EB010008EB01000860
:1000D000EB010008EB010008EB010008EB01000850
:1000E000EB010008EB010008EB010008EB01000840
:1000F000EB010008EB010008EB010008EB01000830
:10010000EB010008EB010008EB010008EB0100081F
:10011000EB010008EB010008EB010008EB0100080F
:10012000EB010008EB010008EB010008EB010008FF
:1001300000F002F800F03CF80AA090E8000C8244BD
:100140008344AAF10107DA4501D100F031F8AFF29A
:10015000090EBAE80F0013F0010F18BFFB1A43F0A5
:1001600001031847AC2A0000CC2A0000103A24BF33
:1001700078C878C1FAD8520724BF30C830C144BF0C
:1001800004680C607047000000230024002500264E
:10019000103A28BF78C1FBD8520728BF30C148BFEA
:1001A0000B6070471FB500F05DF81FBD10B510BDA6
:1001B00000F06AF81146FFF7F5FF01F06FFF00F05D
:1001C00088F803B4FFF7F2FF03BC00F091F80000D9
:1001D0000948804709480047FEE7FEE7FEE7FEE7DB
:1001E000FEE7FEE7FEE7FEE7FEE7FEE70448054917
:1001F000054A064B704700008512000831010008CF
:10020000D0010020D0070020D0030020D003002020
:100210004FF0000200B5134694469646203922BF9F
:10022000A0E80C50A0E80C50B1F12001BFF4F7AFEA
:10023000090728BFA0E80C5048BF0CC05DF804EBCC
:10024000890028BF40F8042B08BF704748BF20F83A
:10025000022B11F0804F18BF00F8012B7047704738
:100260007047704770B5064C7C44064D7D4403E0F2
:10027000206820448047241DAC42F9D170BD0000A5
:10028000C4290000C4290000754600F02BF8AE46D2
:1002900005006946534620F00700854618B020B592
:1002A000FFF7A4FFBDE820404FF000064FF0000725
:1002B0004FF000084FF0000B21F00701AC46ACE80E
:1002C000C009ACE8C009ACE8C009ACE8C0098D467B
:1002D000704710B50446AFF300802046BDE81040DB
:1002E000FFF76FBF004870476C01002070470000A7
:1002F00001491820ABBEFEE726000200FEE770476A
:1003000072B6FEE790F82020012A07D0022A05D015
:10031000416A41F4802141620120704700684269CE
:100320000A43426100207047F0B590F820500468FD
:10033000A468012D05D0022D03D0416A41F480212B
:100340004DE014F0406F01D1E50045D5C4F30164E0
:100350000125A5401D608B684FF4C0759BB1CE6828
:1003600033434E6843EAC603066805EB0417F351AE
:100370004FF4C273076803EB04130E69FE50097D46
:10038000012905D009E00E88CB6843EA4653EBE724
:100390000168CE5846F48076CE501179D2F80530F7
:1003A0004FF4C67641EA0321036806EB041699511F
:1003B0001178D2F801204FF4C47341EA0221026897
:1003C00003EB0413D150006805EB0411425842F0CE
:1003D000010242500020F0BD416A41F40011416227
:1003E0000120F0BD10B590F820300268012B07D035
:1003F000022B05D0416A41F480214162012010BDE9
:10040000D2F8000240F00100C2F80002087D00F0BE
:100410001F0301209840D2F81C328343C2F81C32DB
:10042000CB69B3B9D2F80C328343C2F80C328C8951
:100430004B6864F31F434C6902EBC404C4F84032B8
:100440000C890B6864F31F434C6902EBC404C4F8C5
:100450004432CB69012B16D1D2F80C320343C2F8D7
:100460000C320C884B6864F31F434C6902EBC404E4
:10047000C4F840320C89CB6864F31F434C6902EB2B
:10048000C404C4F844328B69002BD2F804320ED075
:100490000343C2F804320B69002BD2F8143208D09F
:1004A0000343C2F81432096A012904D008E08343E7
:1004B000EFE78343F5E7D2F81C120143C2F81C12A0
:1004C000D2F8000220F00100C2F80002002010BDA6
:1004D000704770B590F82040012C05D0022C03D055
:1004E000416A41F4802128E0046809B32469A40723
:1004F00020D04FF4D874056804EB01142D5915F081
:100500000405956005682D591AD0ED0855600568F9
:100510002C5904F00204D4604FF4DA74056804EB3B
:1005200001142E5906F00F06082E0CD308250DE0F5
:10053000E468DCE7416A41F400114162012070BDCA
:100540006D0D1560E3E72D5905F00F051561056880
:100550002D59C5F30725956105682C59240C546164
:100560004FF4DC72046802EB0112A4581C7004689A
:10057000A458240A5C700468A458240C9C70046875
:10058000A258120EDA704FF4DE72046802EB011208
:10059000A4581C710468A458240A5C710468A45807
:1005A000240C9C710468A258120EDA71006829B1FB
:1005B000016941F020010161002070BDC16841F076
:1005C0002001C160F8E72DE9F05F054600680024CE
:1005D0004669D0F804908768D0F80CB0D0F810A025
:1005E000D0F81880F10748D0F90714D001218160B4
:1005F000B80703D5284600F0FCF90CE0780702D5CF
:100600004FF4006407E0380702D54FF4805402E04D
:10061000284600F0EDF9F80516D529684FF48070EA
:100620008860B80503D5284600F0E5F90CE07805A8
:1006300002D544F4005407E0380502D544F4804460
:1006400002E0284600F0D6F9F80316D529684FF4E1
:1006500080308860B80303D5284600F0CEF90CE05E
:10066000780302D544F4004407E0380302D544F48B
:10067000803402E0284600F0BFF9300707D55FEA72
:10068000CB6004D52968102044F40074C86070075A
:100690004FF0080707D55FEA0B7004D52868C760DC
:1006A000284600F059F9B00706D52868C0688007C9
:1006B00002D0284600F052F9700607D55FEACA60FA
:1006C00004D52968102044F480640861B00607D579
:1006D0005FEA0A7004D528680761284600F05AF9D5
:1006E000F00606D528680069800702D0284600F089
:1006F00052F9B00308D55FEAC96005D52968102012
:100700004860284600F048F9F00307D55FEA097011
:1007100004D528684760284600F070F9300446D5B3
:100720005FEA497040D5F00504D55FEAC87001D092
:1007300044F00104B00504D55FEA887001D544F0A7
:100740000204700504D55FEA487001D544F0040442
:10075000300529D518F0700F26D008F07000402819
:1007600015D006DC102809D020280AD0302816D150
:100770000AE050280ED0602811D10EE044F00804A1
:100780000DE044F010040AE044F0200407E044F0D7
:10079000400404E044F0800401E044F480742868DC
:1007A000816921F070018161296804204860002C72
:1007B00005D0686A204368622846FFF789FEBDE8D5
:1007C000F09F70B5040003D094F8200010B104E04D
:1007D000012070BD204600F081F82068016841F0DA
:1007E0000101016000F016FA0546052604E000F05C
:1007F00011FA401B0A2811D820684068C007F6D0BB
:100800002068016821F00201016000F003FA05464A
:100810000BE000F0FFF9401B0A2806D9606A40F49B
:100820000030606284F82060D2E72068406880076A
:10083000EFD4207E0128206801683DD021F080019E
:100840000160607E01282068016838D021F04001F5
:100850000160A07E01282068016833D021F02001CA
:100860000160E07E0128206801682ED041F010016F
:100870000160207F01282068016829D021F008014B
:100880000160607F01282068016824D021F0040104
:100890000160D4E902010843D4E90412114308437A
:1008A0006168491E08432168C86100206062012018
:1008B00084F82000002070BD41F08001C0E741F0C5
:1008C0004001C5E741F02001CAE721F01001CFE760
:1008D00041F00801D4E741F00401D9E710B586B032
:1008E000002100910191029103910068174988420B
:1008F0002AD11748C16941F00071C161C16901F095
:1009000000710491816941F0040181618069114C99
:1009100000F0040004904FF4006000906946204607
:1009200000F080F8A11400910221019103210391AC
:100930006946204600F076F800221146142000F0A7
:10094000D5F9142000F0C4F906B010BD00640040D1
:1009500000100240000801407047000010B50B4B2A
:100960000B4A0021FFF7B5FD00280DD1084881682A
:10097000042907D002680648BDE810400349E03862
:1009800000F09ABD4268F6E710BD000001000020AB
:100990002801002070477047704770B5044690F8F2
:1009A0002000012804D0606A40F40020606217E053
:1009B000022084F820002068016821F00101016014
:1009C00000F028F905460DE000F024F9401B0A2844
:1009D00008D9606A40F400306062052084F8200085
:1009E000012070BD20684068C007EDD1606270BD15
:1009F00070477047704770477047704770470000F6
:100A000070B5044600F006F90546601C02D00448A3
:100A10000078044400F0FEF8401BA042FAD370BDF9
:100A20000C0000202DE9F84FDFF8C0910024A9F157
:100A3000040B23464FF00F0809F1040AABF1040E32
:100A4000CCE00127A7403A40BA4272D1DFF8A0C1FA
:100A50004D68A5EB0C0665452BD00DDC032D34D07D
:100A600005DC35B3012D19D0022D2FD11BE0112D3E
:100A700016D0122D2AD119E0B6F5881F19D006DC40
:100A8000B6F5803F15D0B6F5801F1FD111E0B6F541
:100A9000001F0ED0B6F5041F18D10AE0CB6815E090
:100AA000CB681B1D12E0CB6808330FE0CB680C331A
:100AB0000CE08B682BB1012B4FF0080303D047618A
:100AC00004E0042302E0076100E00023FF2A01D8CC
:100AD000064601E000F104064FEA840501D9A5F1BC
:100AE0002005376808FA05FC27EA0C0703FA05F524
:100AF00047EA050737604D68ED006ED53D4DAE699C
:100B000046F00106AE61AD6924F0030605F001056B
:100B10000095394D7719BE68A5072D0F08FA05FC19
:100B200026EA0C06DFF8D4C0604503D14FF0000C74
:100B300025E052E0DFF8C8C0604502D14FF0010C5B
:100B40001DE0DFF8C0C0604502D14FF0020C16E096
:100B5000DFF8B4C0604502D14FF0030C0FE0DFF8BE
:100B6000ACC0604502D14FF0040C08E0DFF8A0C033
:100B7000604502D14FF0050C01E04FF0060C0CFA75
:100B800005FC4CEA060CC7F808C04D68D9F80060AF
:100B9000ED024D4601D5164300E096432E604D68A8
:100BA000DAF80060AD02554601D5164300E09643E1
:100BB0002E604D68DBF80060AD035D4601D516433D
:100BC00000E096432E604D68DEF80060ED03754648
:100BD00001D5164300E096432E60641C0A6832FA81
:100BE00004F57FF42EAFBDE8F88F00000804014043
:100BF00000001110001002400000014000080140F8
:100C0000000C014000100140001401400018014098
:100C1000001C014001488068704700000C00002063
:100C20000248816802781144816070470C000020FE
:100C3000074810B5016841F010010160032000F081
:100C400075F80F2000F006F800F024F8002010BD21
:100C50000020024070B50D4D04464FF47A7128789B
:100C6000B1FBF0F00A490968B1FBF0F000F0BEFA00
:100C700048B9102C07D200222146501E00F036F849
:100C800000206C6070BD012070BD00000C000020D1
:100C9000180000200C4808B5816941F0010181610C
:100CA000816901F001010091C16941F08051C16188
:100CB000C069064900F080500090486820F0E0606C
:100CC00040F00070486008BD001002400000014084
:100CD000002809DB00F01F0201219140400980003B
:100CE00000F1E020C0F8001170470000F0B40E4B96
:100CF0001B68C3F30223C3F10704042C00D90424A6
:100D00001D1D072D01D2002300E0DB1E012606FA7F
:100D100004F56D1E0D409D409E40761E164045EA2E
:100D20000601F0BC01F0A2B90CED00E0064A00F0AB
:100D3000070110684FF6FF03184040EA01200349FD
:100D400008431060704700000CED00E00000FA0559
:100D50002DE9F0470D46040067D0DFF81881D8F878
:100D6000000000F00700A8420CD2D8F8001021F0D3
:100D700007012943C8F80010D8F8000000F0070068
:100D8000A84252D120683C4E810712D5400703D5B6
:100D9000706840F4E06070602078000703D57068E8
:100DA00040F4605070607068A16820F0F000084363
:100DB00070602078C00727D06068012810D03168A3
:100DC000022810D0890700292FDA716821F0030169
:100DD00001437160FFF71EFF074641F288390CE0BE
:100DE00031688903EFE78901EDE7FFF713FFC11BC6
:100DF000494502D90320BDE8F0877068616800F0BA
:100E00000C00B0EB810FF0D1D8F80010404601F093
:100E10000701A9420BD9016821F0070129430160AC
:100E2000006800F00700A84201D00120E3E7207825
:100E3000400705D57068E16820F4E0600843706001
:100E40002078000706D57068216920F4605040EAD8
:100E5000C100706000F018F87168084AC1F303110E
:100E6000515CC8400649086006480068FFF7F2FE7A
:100E70000020C0E70020024000100240E02B0008E4
:100E800018000020100000200E4B59680E4801F099
:100E90000C02042A11D0082A0FD10C48C1F3834256
:100EA000C903805C0AD55968084AC1F34041921EC3
:100EB000515C054A5043B0FBF1F070470449484388
:100EC000704700000010024000127A00D02B00088A
:100ED00000093D002DE9F84F04006FD02078BE4D89
:100EE000C00747D06868C0F38100012807D0686850
:100EF000C0F38100022809D16868C00306D52868BC
:100F0000800337D560680028E7D033E06068B0F52B
:100F1000803F0BD010B1B0F5A02F11D0286820F47D
:100F200080302860286820F4802002E0286840F49F
:100F300080302860606888B1FFF76CFE064609E0E3
:100F4000286840F480202860F0E7FFF763FE801BEC
:100F5000642873D828688003F7D50BE0FFF75AFEA2
:100F6000064604E0FFF756FE801B6428F1D8286887
:100F70008003F7D42078DFF8648280074FF0010AFD
:100F80004FF0000939D5686810F00C0F07D0686879
:100F9000C0F38100022809D16868C00306D428681C
:100FA000800714D52069012808D110E02069B0B16C
:100FB000C8F800A0FFF72EFE064605E007E1FFF7A0
:100FC00029FE801B0228C4D828688007F7D5286826
:100FD000616920F0F80040EAC10028600DE0C8F81F
:100FE0000090FFF717FE064604E0FFF713FE801B94
:100FF000022823D828688007F7D4207800072CD54A
:101000007748A169D9B1C0F800A0FFF703FE0646F2
:1010100004E0FFF7FFFD801B02280FD8686A8007F5
:10102000F7D570484FF4FA510068B0FBF1F000902A
:1010300000BF0098411E0091FAD20EE07CE0C0F89B
:101040000090FFF7E7FD064604E0FFF7E3FD801B95
:10105000022871D8686A8007F7D4207840075BD5EA
:10106000E8690027C00008D4E86940F08050E861D2
:10107000E869012700F0805000905B480168C905CD
:1010800011D40168834641F480710160FFF7C2FD0D
:10109000064604E0FFF7BEFD801B64284CD8DBF851
:1010A0000000C005F6D5E06801280AD008B105287F
:1010B00013D0286A20F001002862286A20F004007A
:1010C00002E0286A40F001002862E06841F2883BB3
:1010D00088B1FFF79FFD064609E0286A40F004004A
:1010E0002862EEE7FFF796FD811B59455BD8286A19
:1010F0008007F7D50BE0FFF78DFD064604E0FFF70C
:1011000089FD811B59454ED8286A8007F7D41FB145
:10111000E86920F08050E861E069A8B36968C1F32C
:101120008101022946D00228484606D0C8F860004E
:10113000FFF770FD044639E035E04746C8F8600027
:10114000FFF768FD064604E0FFF764FD801B0228F8
:1011500029D828688001F7D4206AB0F5803F05D1EE
:101160006868A16820F4003008436860D4E9080189
:101170000843696821F4741108436860C7F860A0E7
:10118000FFF748FD044605E023E0FFF743FD001BA1
:10119000022808D828688001F7D51AE0FFF73AFD41
:1011A000001B022802D90320BDE8F88F28688001BF
:1011B000F4D40EE00128F7D06868226A00F4803188
:1011C000914204D1616A00F47010884201D001207C
:1011D000EAE70020E8E70000001002400000424279
:1011E00080044242180000200070004010B5401EEC
:1011F000B0F1807F01D3012010BD4FF0E024606189
:101200000F21601700F032FF0020A061072020614D
:10121000002010BDFEE700000F4810B50D49016029
:101220000321416000214FF4A0228160C0E9031234
:101230004FF480024261017641768176C176017772
:101240004177FFF7BEFA002803D0BDE81040FFF752
:1012500057B810BD0064004044010020054808B59F
:10126000816941F004018161806900F0040000900F
:1012700008BD000000100240FEE7FEE7704770471F
:10128000FFF7CEBC704700000148FFF79CB9000093
:1012900044010020FEE72DE9F04105461F461646B1
:1012A0000C46104601F01EFC80463146284601F0EF
:1012B000E7FB01D2354605E02146284601F0E0FA79
:1012C00000D225460120B840401E01F0ADFA064686
:1012D0002146284601F006FC314601F005FB414657
:1012E00001F0A4F9BDE8F04101F062BA2DE9F04146
:1012F00001249C40641E00EA04050F46104601F0DC
:10130000F1FB0646204601F0A7FA0446284601F004
:10131000A3FA314601F0E8FA214601F087F939468F
:10132000BDE8F04101F014B930B58FB0282168460E
:10133000FEF76EFF14210AA8FEF76AFF01200104E0
:1013400000248DE8130004904FF4E010CDE908105C
:10135000022507956846FFF7BDFD08B172B6FEE7A6
:101360000F20CDE90A054FF48060CDE90C40022141
:101370000AA80E94FFF7ECFC002801D072B6FEE735
:101380000FB030BD014600204A0400D510200A06E7
:1013900001D540F020000A0701D540F008004A07B7
:1013A00001D540F001008A0701D540F00200C907CD
:1013B00001D040F00400704710B588B00446002109
:1013C00000F048F8002104200791CDE9020108202F
:1013D00006910490218A4FF0C062207842EA0121F0
:1013E0000843019001208DF81800054B06AA6946B4
:1013F0000448FEF799FF204600F006F808B010BD3B
:101400001C0000204401002000B590F8451089B070
:1014100021B109B05DF804EB00F076B90022042197
:101420000792CDE902120821069204910178008A00
:101430004FF0407242EA002001430191034B06AA9B
:1014400069460348FEF770FF09B000BD1C0000208C
:101450004401002010B5044690F8450088B028B13A
:1014600008B02046BDE8104000F036BA00200690D3
:101470008DF8181007900421CDE90210082004907F
:10148000218A4FF08062207842EA012108430190CE
:10149000074B06AA69460748FEF746FF6A23002263
:1014A00047F20501204600F0D1FB08B010BD000056
:1014B0001C000020440100202DE9F84F0C46054691
:1014C00090F84510DFF81C82DFF81CC2874FDFF868
:1014D0002092DFF820A2DFF820B21646D0B2A1B3E6
:1014E000FD2840D1E07838B9207928B9607918B959
:1014F000A07908B9E07948B3B4F80100102340BAE4
:1015000042466146FFF7F2FE2865E0782179000146
:1015100040EA11100C233A464946FFF7E7FE68659A
:10152000A0880C2340BA52465946FFF7DFFEA86553
:10153000E08840BA00F0FBFE704A714B00F00AFFF1
:1015400000F0C4FEE865BDE8F88F11E0FFE7002079
:10155000ADF80000B4F80100ADF80000FFF712FF8D
:1015600085F84400EFE72068A8606068E860EAE773
:101570002A78C6F307218A42E5D1C6F30562022A1A
:1015800005D0112A2ED0FE28DDD12970EBE7208866
:10159000102340BA42466146FFF7A8FE28656088DE
:1015A000102340BA3A464946FFF7A0FE6865A08876
:1015B000102340BA52465946FFF798FEA865E088C6
:1015C00040BA00F0B4FE4D4A4D4B00F0C3FE00F0AF
:1015D0007DFEE865C6F3054085F84400C6F38150FA
:1015E0002866B0E7474F0026208837F81610884253
:1015F00074D10E2E72D2DFE806F0070C131A222ADD
:10160000323A424A525A626A207901F025F9A866B4
:1016100064E02079D4F8051040EA012028675DE0F5
:101620002079D4F8051040EA0120A86756E0207917
:10163000D4F8051040EA0120C5F880004EE020797A
:10164000D4F8051040EA0120C5F8880046E020796A
:10165000D4F8051040EA0120C5F890003EE020795A
:10166000D4F8051040EA0120C5F8980036E020794A
:10167000D4F8051040EA0120C5F8A0002EE020793A
:10168000D4F8051040EA0120C5F8A80026E020792A
:10169000D4F8051040EA0120C5F8B0001EE020791A
:1016A000D4F8051040EA0120C5F8B80016E020790A
:1016B000D4F8051040EA0120C5F8C0000EE02079FA
:1016C000D4F8051040EA0120C5F8C80006E02079EA
:1016D000D4F8051040EA0120C5F8D000761C0D2E84
:1016E00082DD30E700004841000048C10000304280
:1016F000000030C200008841000088C19A99999981
:101700009999B93FF02B000800B589B000210091EC
:1017100001910078029008200690FF208DF80000CB
:101720008DF801008DF804008DF802008DF8050099
:101730008DF803008DF80600FC2004918DF8070059
:10174000034B6A4602A90348FEF7EEFD09B000BD4F
:101750001C0000204401002070B5044690F84500AC
:1017600020B12046BDE8704000F0CCBB6263E1626E
:10177000A06EB0F17E5F15D047F205056A230F4ACF
:101780002946204600F062FA2946204600F0D4F9A6
:101790002046FFF739FE702347F217012046626B9F
:1017A00000F054FA0120FFF72BF92046E26ABDE869
:1017B0007040702347F2160100F048BA0000A040C4
:1017C0002DE9F04788B08846DDE9105400210091EA
:1017D00001910078029004910820CDE90510344E63
:1017E000344F9A4691461023324639464046FFF719
:1017F00052FD000A8DF8000010233246394640465B
:10180000FFF749FD2C4E2D4F8DF801000C23324679
:1018100039464846FFF73FFD00098DF802000C23CA
:10182000324639464846FFF736FD254F06010C2360
:101830003A4600215046FFF72EFD46EA20208DF85B
:1018400003000C233A4600215046FFF724FD1D4EAD
:101850008DF804000C23324600212846FFF71BFDBB
:1018600000098DF805000C23324600212846FFF7B9
:1018700012FD154E154F05010C2332463946204600
:10188000FFF709FD45EA20208DF806000C233246BB
:1018900039462046FFF7FFFC8DF807000C4B6A46DF
:1018A00002A90C48FEF740FD08B0BDE8F087000033
:1018B00000004841000048C100003042000030C232
:1018C0000000FA430000A04000008841000088C1E9
:1018D0001C0000204401002000B589B000210091C7
:1018E00001910078029008200690FF208DF80000FA
:1018F0008DF801008DF804008DF802008DF80500C8
:101900008DF803008DF80600FD2004918DF8070086
:10191000034B6A4602A90348FEF706FD09B000BD65
:101920001C0000204401002070B5C2620446016220
:10193000806E4FF07E5290421DD047F205056A231B
:101940002946204600F082F92946204600F0F4F8A6
:101950000120A0612046FFF757FD702347F22401C4
:101960002046626B00F072F9702347F22501204691
:10197000626A00F06BF90120FFF742F82046E26A44
:10198000BDE87040702347F2160100F05FB9000017
:1019900030B589B0002200920423CDE904320192CF
:1019A000082206920478008A4FF0C85545EA0020C4
:1019B000044301208DF8000002208DF8010003206F
:1019C0008DF8020005208DF8040006208DF8050032
:1019D0008DF806108DF803308DF807200394044B22
:1019E0006A4602A90348FEF79FFC09B030BD00001B
:1019F0001C0000204401002070B588B00446DDE9D9
:101A00000C0600250095019526642362A063C4E9B5
:101A10000A12A06E10F0FF4F0FD047F205066A239E
:101A200000223146204600F011F93146204600F0F0
:101A300083F82046FFF7E8FCA561206E022802D05B
:101A40002046FFF7E1FC0420CDE9040508200690BC
:101A500010232F4A2F49A06AFFF71DFC4FF0807119
:101A600041EA002021782C4D08432C4E039010238E
:101A70002A463146E06AFFF70EFC000A8DF80000A6
:101A800010232A463146E06AFFF705FC244D254E17
:101A90008DF8010010232A463146206AFFF7FBFB30
:101AA000000A8DF8020010232A463146206AFFF70B
:101AB000F2FB1D4D8DF8030010232A460021A06B78
:101AC000FFF7E9FB000A8DF8040010232A460021E5
:101AD000A06BFFF7E0FB154D8DF8050010232A469B
:101AE0000021206CFFF7D7FB000A8DF806001023B9
:101AF0002A460021206CFFF7CEFB8DF807000C4B27
:101B00006A4602A90B48FEF70FFC08B070BD000042
:101B100000008841000088C100004841000048C121
:101B200000003042000030C20000FA430000A04034
:101B30001C0000204401002000B589B0002206925C
:101B40008DF81810090A8DF8191007920421CDE9B3
:101B50000212082104910178008A4FF0885242EA6B
:101B6000002001430191044B06AA69460348FEF791
:101B7000DBFB09B000BD00001C0000204401002078
:101B800010B588B0002100910422CDE90421019113
:101B9000082106910378008A4FF0B05444EA0020EF
:101BA000034301208DF8000002208DF8010003207E
:101BB0008DF8020005208DF8040006208DF8050040
:101BC00007208DF8060003938DF803208DF8071089
:101BD000034B6A4602A90348FEF7A6FB08B010BDF6
:101BE0001C0000204401002070B50263044601621D
:101BF000806E4FF0804290421DD047F205056A2367
:101C00002946204600F022F829462046FFF794FF97
:101C10002046FFF7F9FB0220A061702347F218016C
:101C20002046226B00F012F87023074A47F2220187
:101C3000204600F00BF82046226ABDE87040702371
:101C400047F20A0100F002B800002041F0B589B067
:101C500000250446019504200295CDE905050820DC
:101C600007901646228A20784FF0905747EA0222C2
:101C700010430490080A8DF804108DF805008DF8C3
:101C800006508DF80750702B02D06A2B02D010E05E
:101C900002960EE0304600F08BFDA061304600F069
:101CA000A3FD8DF808008DF809508DF80A508DF8C5
:101CB0000B50044B01AA03A90348FEF735FB09B0FA
:101CC000F0BD00001C0000204401002030B589B0A8
:101CD000002200920423CDE90432019208220692E8
:101CE0000478008A4FF0B85545EA002004430120EB
:101CF0008DF8000002208DF8010003208DF802000D
:101D000005208DF8040006208DF805008DF80610DA
:101D10008DF803308DF807200394044B6A4602A91E
:101D20000348FEF701FB09B030BD00001C00002095
:101D30004401002000B589B0002200920192007891
:101D4000029004920820CDE90520FF208DF80000C4
:101D50008DF804008DF801008DF805008DF8020063
:101D60008DF803008DF8061001208DF80700044B54
:101D70006A4602A90348FEF7D7FA09B000BD000081
:101D80001C0000204401002000B589B00021009112
:101D900001910078029004910820CDE90510FF2000
:101DA0008DF800008DF801008DF804008DF8020018
:101DB0008DF805008DF803008DF80600FE208DF8E3
:101DC0000700044B6A4602A90348FEF7ADFA09B0C2
:101DD00000BD00001C0000204401002070B5C1615E
:101DE000044681648069032810D047F205056A2300
:101DF0000B4A29462046FFF729FF29462046FFF7D0
:101E00009BFE0320A0612046FFF7FEFA2046E26910
:101E1000BDE87040702347F20601FFF717BF0000CE
:101E20000000404000B589B0002200920192049267
:101E300005920822069200780290FF208DF800009B
:101E40008DF804008DF801008DF805008DF8020072
:101E50008DF803008DF80610FD208DF80700044B67
:101E60006A4602A90348FEF75FFA09B000BD000008
:101E70001C0000204401002000B589B0002200921F
:101E800001920078029004920820CDE90520FF20FD
:101E90008DF800008DF804008DF801008DF8050024
:101EA0008DF802008DF803008DF80610FC208DF8E7
:101EB0000700044B6A4602A90348FEF735FA09B049
:101EC00000BD00001C0000204401002000B589B0C6
:101ED0000023069307930078029340F4007000906B
:101EE0000820CDE90330CDE90612044B06AA694665
:101EF0000348FEF719FA09B000BD00001C000020DD
:101F00004401002000B589B00023069307930078B0
:101F1000029340F4807000900820CDE90330CDE9B1
:101F20000612044B06AA69460348FEF7FDF909B0FC
:101F300000BD00001C0000204401002000B589B055
:101F40000022009201920078029004920820CDE9CC
:101F50000520FF208DF800008DF804008DF80100A9
:101F60008DF805008DF802008DF803008DF806103D
:101F7000FB208DF80700044B6A4602A90348FEF7D0
:101F8000D3F909B000BD00001C000020440100206E
:101F900030B589B0002200920423CDE904320192C9
:101FA000082206920478008A4FF0C05545EA0020C6
:101FB000044301208DF8000002208DF80100032069
:101FC0008DF8020005208DF8040006208DF805002C
:101FD0008DF806108DF803308DF807200394044B1C
:101FE0006A4602A90348FEF79FF909B030BD000018
:101FF0001C0000204401002010B50B461446074980
:10200000643000F00DF800F8643DFD2101820021EC
:10201000816180F8454080F8461010BDF02B000823
:102020000A8802804A8802818A880282CA880283DA
:102030000A8902844A8902858A890286CA890287B6
:102040000A8AA0F840204A8AA0F848208A8AA0F884
:102050005020CA8AA0F858200A8BA0F860204A8B2A
:10206000A0F86820898BA0F8701070470907090E46
:10207000002804DB00F1E02080F80014704700F035
:102080000F0000F1E02080F8141D704700227F212E
:102090000148FFF7B1BF0000480000201CB5FEF763
:1020A000C7FDFFF741F9FFF7D9F8FFF7B5F87B480F
:1020B0000024012144618461C461046044600461BE
:1020C000016201467648FEF78DF97548FEF765FC1A
:1020D00002217348FEF716F9724E734F4FF0804598
:1020E00047F214083078182811D2DFE800F00C11FC
:1020F00017242B353C454A50585E63687F92A5AA49
:10210000B0B6BCC2C8CD65482830FFF77DF9C0E045
:10211000624801212830FFF79DF9BAE00520FEF75B
:102120006FFC5E48002300941A463946283001941B
:10213000FFF762FCADE0594829462A462830FFF7F0
:10214000F3FB05E0554829462A462830FFF704FBF3
:102150000520FEF755FC9CE050483A46534928308C
:10216000FFF742FDF4E70520FEF74AFC4B485049D3
:102170002830FFF733FE8CE048482830FFF71CF981
:1021800087E0464841462830FFF7D6FC81E04348C7
:102190007023484A41462830FFF758FD79E03F4810
:1021A00002212830FFF7F4FB73E03C482830FFF7AA
:1021B000ABFA6EE039482830FFF78EFB69E037480C
:1021C00001212830FFF758FE34482830FFF79CFAE9
:1021D0000520FEF715FC38480023CDE900402F48C4
:1021E0001A4619462830FFF7EBFA52E02B48012136
:1021F0002830FFF741FE29482830FFF785FA0520EF
:10220000FEF7FEFB25482D4A2D492830FFF77AFEC0
:102210003FE0224802212830FFF72EFE1F482830D9
:10222000FFF772FA0520FEF7EBFB1C48254A26490A
:102230002830FFF74BFE2CE018482830FFF7A4FDAC
:1022400027E0164801212830FFF778FE21E01348E7
:1022500001212830FFF710FE1BE01048052128302F
:10226000FFF768FD15E00D4800212830FFF790FECC
:102270000FE00A4801212830FFF728FD09E0074850
:102280002830FFF77DFC04E0044800212830FFF7E8
:10229000C9FD3220FEF7B4FB24E700002000002037
:1022A00044010020000000200000A0400000604029
:1022B0009A99993F3333B33E000080BF00004040FD
:1022C000C3F5C83FCDCC4C400000904021F0004207
:1022D000A2F16052B2F5801F01F0004328BFD2F195
:1022E0007F6C0BD95FEA001C43EAC20242EB5070DC
:1022F00018BF704728BF20F001007047B2F5801F5B
:10230000BCBF184670474FEA410C1CF5001F02D2B3
:10231000084600F0B0BB70B500F0C6F800000089B8
:10232000FFF7F6BF4FF00040A0F580007047B0FA0D
:1023300080F310FA03F10AD0C3F11D0303F58063A3
:102340004FEA41504FEA035202EBD12170474FF060
:1023500000007047DFF848C170B51CEA111E1EBFAF
:102360001CEA13159EEA0C0F95EA0C0F00F06F8023
:1023700081EA030423EA4C134EEAD47E21EA4C118D
:1023800041F4801143F48013AE44A1FB024CA0FB46
:102390000365AEF17F7E361955EB0C05A1FB034CAE
:1023A0004CF10003A0FB021C16EB0C06654153F137
:1023B0000003094218BF46F0010613F4007F0BD159
:1023C0004FEA03314FEA0530340341EA155140EA40
:1023D00016506FF003020AE04FEAC3214FEAC5200E
:1023E000F40241EA555140EA56506FF0020202EB06
:1023F0002E4201EB025585EACE710AD05FEA440C09
:1024000018BF24F0004450F1000041F1000120EA1F
:10241000D47040F2FE7C624500D270BDA84214BF69
:102420004FF080444FF04044002E08BF0024BEF11E
:10243000806FA8BFA1F1C041BDE8704080F28280EA
:102440004FF0000001F1C04101F0004170479EEAE9
:102450000C0F0CEA131518BF95EA0C0F06D04FF0BD
:10246000000081EA030E0EF0004170BD00F01CF880
:102470008900013E00F007B800F009B84FEA430CAC
:102480005FEA5C5C08D081EA030100F05BB84FEAC8
:10249000410C5FEA5C5CF6D14FF0000001497047E7
:1024A0000000FF070000F87F0EF1020E2EF0030E71
:1024B0005EF8046B364205D4012A43EB030515F59B
:1024C000001F12D8012841EB010C1CF5001F0CD88D
:1024D0000ED14FEAD17C15F5001F0CEB4C0C0CF122
:1024E000020C08BF4CEBD37C04E04FF0080C01E079
:1024F0004FEAD37C0CEB4C0526FA05F606F00706EE
:10250000B6F1040C06D20EEB860CBDE870404CF020
:10251000010C6047DFE80CF0090B02024FF00041AC
:102520004FF00000A1F5002170BD194610460128AA
:1025300051EB010418BFD4F5001484BF002001F052
:10254000004170BD0808A0F500114FEA3101704745
:1025500090EA010F48BF81F0004100F1CA82421A9F
:102560003CBF801A89184FEAD0524FF07F4C1CEACA
:10257000410FA2EBD15318BF9CEA026F00F03B80E1
:102580004FF0004C4CEA00204CEA012121FA03FCF8
:1025900010EB0C0C1ED202F1FF325FEA1C2040EB64
:1025A000C25038BF70471CF07F0F4FEA400C18BF75
:1025B000BCF17F4F38BF7047C3F12003994008BF7B
:1025C00020F00100BCF17F4F38BF7047A0F1C04040
:1025D00000F051BA4FEA3C00000A40EBC25028BF5D
:1025E0001CF0FF0F4FEA400CE6D018BFBCF17F4F44
:1025F00038BF7047EAE79CEA026F05D010EA5C0F2B
:1026000008BF00F00040704710B500F0EEF900BFC1
:1026100064FBBE3E401058BFC0F14040491058BF57
:10262000C1F140418142EFF3008070474FF47F0CCD
:102630001CEAD0121EBF1CEAD11392EA0C0F93EAD7
:102640000C0F00F0858090EA010F48BF42F48072C1
:1026500040F4000C41F400002CF07F4120F07F405A
:1026600000B58142A2EB03020FF2081CACEB504E06
:10267000C0F100009EF800E04FEA4E0E00FB0EFC99
:1026800038BF49004FEA2C1C02F5FA020CFB0EF38E
:102690004FEACE1E4FEA112C4FEAC1210EEB635ECA
:1026A00042EB22420EFB0CFC4FEA1C5300FB0311D1
:1026B0004FEA112C4FEA01310EFB0CFC4FEADC4CC7
:1026C00000FB0C11C14228BF09184CEB03335DF825
:1026D00004EB10EB410143EBC250B2F57C0F38BF65
:1026E000704729D512F0F00F1CBF00F1C04000F078
:1026F00000407047008182838485868788898B8C1F
:102700008D8E8F919293959697999A9C9D9FA0A25A
:10271000A3A5A7A8AAACAEB0B2B3B5B7B9BCBEC0AA
:10272000C2C5C7C9CCCED1D4D7D9DCDFE2E6E9EC4B
:10273000F0F3F7FAFE0000004FEA400C0CF1807C49
:10274000BCF17E4F28BF7047B0F1C04000F093B994
:1027500090EA010F0CEAD11348BF42F4807262453F
:1027600038BF634507D213F47F0F16D080EA01000B
:1027700000F00040704710B500F037F9097EFC3ECC
:1027800000F005B880EA010000F00040704780EAE0
:10279000010000F0004000F06EB912F47F0F04BF9A
:1027A0000248704780EA010000F065B90000C07F70
:1027B00041000B0ED3F19E0208D950F400034FEAFA
:1027C000032323FA02F048BF4042704710B500F0DF
:1027D0000CF900BF49922480002070476FF000423E
:1027E00082EA200070470000C10DD1F19E0206DB95
:1027F0004FEA002343F0004323FA02F070470042FF
:1028000007D54FEA4001B1F1FE4F02D24FF0000070
:10281000704710B500F0E9F8499224800020704715
:102820006FEA20007047000010F0004148BF4042AE
:10283000B0FA80F310FA03F2C3F19D030BD051EA12
:10284000C35101EB1220530638BF704700F101005D
:1028500008BF20F001007047B0FA80F310FA03F2CD
:10286000C3F19D030AD0D90501EB1220530638BFEE
:10287000704700F1010008BF20F001007047000020
:1028800050EA010C00F113801CF5000F58BFBCF595
:10289000000F01D48842704707D710F5000F58BFCA
:1028A00011F5000F15D488427047894270471CF516
:1028B000000F04D5BCF5000FF7D5814270474FF0EB
:1028C000807C1CEB400F38BF1CEB410F01D28142D2
:1028D000704710B500F089F8922449004FF000507D
:1028E0004FF08051FFF796BE4FF47F0C1CEAD012D8
:1028F0001EBF1CEAD11392EA0C0F93EA0C0F00F0F2
:10290000478090EA010F48BF42F480724FF0004CBC
:102910004CEA00204CEA012102EB0302A0FB011368
:10292000A2F50002002918BF43F001035B0028BF95
:102930004FEA330342EB22425FEA132C4CEBC250C6
:102940002EBFBCEB436FB2F57C0F70474FEA036CB0
:10295000BCF1004F08BF20F00100B2F57C0F38BF7A
:1029600070470BD582F0FF0212F5803FC8BF704759
:1029700000F1C040D8BF00F00040704700F5000CE7
:102980005FEA4C0C48BF7047B0F1C04000F073B82C
:1029900090EA010F0CEAD11348BF42F480726245FD
:1029A00038BF634504D280EA010000F00040704760
:1029B00010B500F01AF800BF8900013E00F007B81A
:1029C00000F009B85FEA410C5FEA1C6C08D080EAAD
:1029D000010000F050B85FEA400C5FEA1C6CF6D1D1
:1029E0004FF00040A0F5800070470EF1020E2EF06F
:1029F000030E5EF8044B244204D44FEA4102B2F1C4
:102A00007F4F11D84FEA4003B3F17F4F0CD80ED15E
:102A10004FEAD07CB2F17F4F0CEB4C0C0CF1020C66
:102A200008BF4CEBD17C04E04FF0080C01E04FEA0A
:102A3000D17C0CEB4C0324FA03F404F00704B4F14A
:102A4000040C06D20EEB840CBDE810404CF0010CD7
:102A50006047DFE80CF0070802024FF00040A0F5E5
:102A6000800010BD0846420018BFD2F1807288BFB6
:102A700000F0004010BDFF2141EAD050C005704772
:102A800051EA000C00F113801CF5000F58BFBCF593
:102A9000000F01D48142704707D711F5000F58BFCE
:102AA00010F5000F15D481427047894270471CF51C
:102AB000000F04D5BCF5000FF7D5884270474FF0E2
:102AC000807C1CEB410F38BF1CEB400F01D28842C9
:102AD000704780EA010081EA000180EA0100FFF707
:102AE000F8BE000090EA010F48BF81F000413FF5B9
:102AF00036AD421A04D882F00042A0EB0200114425
:102B00004FEAD0524FF07F4C1CEA410FA2EBD15359
:102B100018BF9CEA026F4AD04FF0004C4CEA0020EC
:102B20004CEA012121FA03FCB0EB0C0C0FD412F09B
:102B3000FE0F36D05FEA4C001DD5001240EBC250AC
:102B400038BF70471CF03F0F18BF70470BE0A2F171
:102B500001025FEA1C2040EBC25038BF70471CF0F6
:102B60007F0F18BF7047C3F12003994014BF401E68
:102B700020F00100704780084FEA122308BF704719
:102B8000B0FA80FCA2EB0C02CCF1280C60FA0CF03D
:102B900093EA122F04BF00EBC25070474FEAC37094
:102BA0007047130A5FEADC1008BF7047F6E79CEA3B
:102BB000026F04D010EA5C0F08BF0020704710B508
:102BC000FFF713FF40DFF63E81F00040704701023F
:102BD00002030405060708090A0B0C0D0E0F10105E
:102BE00000000000000000000102030406070809BD
:102BF000057006700A700B701070117014701670EA
:102C00001770187019701A701B701C701D700000FE
:102C1000342C000800000020200000006C01000897
:102C2000542C000820000020B00700008801000894
:102C30005DF4FFFF00000000000000000000000045
:102C400001000000100000000000000000127A00E7
:042C50000000000080
:0400000508000131BD
:00000001FF
